:0400000063EF00F0BA
:10000800FACF12F0FBCF13F0E9CF14F0A8EF16F0F7
:10001800D8CF01F0E8CF02F0E0CF03F0FACF04F038
:10002800FBCF05F0E9CF06F0EACF07F0E1CF08F003
:10003800E2CF09F0D9CF0AF0DACF0BF0F3CF0CF00A
:10004800F4CF0DF0F6CF0EF0F7CF0FF0F8CF10F099
:10005800F5CF11F09DB89EA803D0E3EC1BF00CD0AF
:100068009DBA9EAA03D0ABEC1AF006D0F0B8F0A265
:1000780003D08DEC1DF000D011C0F5FF10C0F8FFC3
:100088000FC0F7FF0EC0F6FF0DC0F4FF0CC0F3FF62
:100098000BC0DAFF0AC0D9FF09C0E2FF08C0E1FFC0
:1000A80007C0EAFF06C0E9FF05C0FBFF04C0FAFF6E
:1000B80003C0E0FF02C0E8FF01C0D8FF100064EFF2
:1000C80013F040C0AEF041C0AFF029EE37F0DF507A
:1000D80039EC19F00101CA6F29EE36F0DF5039EC1E
:1000E80019F00101CB6F0101CB510101CD6FCC6B30
:1000F8000101CA510101CC250101D36F0101000E94
:100108000101CD210101D46F22502310D8B4E5D3C9
:100118004004010E4158D8B0C8D0415004E1FA0E4D
:10012800405CD8A051D0000178510101CB6FCA6B57
:10013800000176510101CA250101D96F0001000EA5
:100148000101CB210101DA6F000E436EFA0E426EF7
:1001580024D0360E4224D96E080E4320DA6EDF50C2
:1001680039EC19F00101CA6F100E0101CA6101D002
:100178001AD0360E4224D96E080E4320DA6EDF50AC
:1001880039EC19F00101CA6F0101CA510101D927DF
:10019800000EDA23424A432A00D04050425C4150C4
:1001A8004358D8A0D6D70101DA510101D86F01010F
:1001B800D85100EC19F00001D16F0101D95100ECC0
:1001C80019F00001D06F1CD0360E4024D96E080EED
:1001D8004120DA6EDF500001D06F020E4024010189
:1001E800CA6F000E41200101CB6F360E0101CA25EE
:1001F800D96E080E0101CB21DA6EDF500001D16FF4
:10020800D3C1D9F1D4C1DAF100D00101DA51010129
:10021800D86F0101D85100EC19F00001CD6F010130
:10022800D95100EC19F00001CC6F0101DA5101013C
:10023800D86F0101D85100EC19F001013B6F0101A1
:10024800D95100EC19F001013C6FFF0E0101D915DD
:100258000101CA6F000E0101DA150101CB6F01011E
:10026800D8510101CA27000ECB23710E0101CA25FE
:100278000101D66F000E0101CB210101D76F0101E9
:10028800D7510101D86F0101D65100EC19F00101D5
:100298003D6F0101D85100EC19F001013E6F402873
:1002A80000EC19F00001D66F12004004020E41580C
:1002B800D8B000D1CD0E405C010E4158D8A00FD067
:1002C800E00E405C010E4158D8B009D0FF0E402422
:1002D8000101D96F200E41200101DA6F05D0D3C189
:1002E800D9F1D4C1DAF100D00101DA510101D86F96
:1002F8000101D85100EC19F001013B6F0101D951FE
:1003080000EC19F001013C6FFF0E0101D915010144
:10031800CA6F000E0101DA150101CB6F0101D85136
:100328000101CA27000ECB23710E0101CA25010164
:10033800D66F000E0101CB210101D76F0101D75102
:100348000101D86F0101D65100EC19F001013D6F90
:100358000101D85100EC19F001013E6F00017851FC
:100368000101CB6FCA6B000176510101CA25010159
:10037800D96F0001000E0101CB210101DA6F29EECE
:1003880030F0DF5039EC19F00101CA6FCB6B29EE60
:1003980031F0DF5039EC19F00101CC6F0101CC517B
:1003A8000101CA27000ECB2329EE32F0DF5039ECC9
:1003B80019F00101CD6F0101CD510101CA27000ECD
:1003C800CB2329EE33F0DF5039EC19F00101CE6F61
:1003D8000101CE510101CA27000ECB2329EE34F0CA
:1003E800DF5039EC19F00101CF6F0101CF51010144
:1003F800CA27000ECB2329EE35F0DF5039EC19F06F
:100408000101D06F0101D0510101CA27000ECB2391
:100418000101CA510101D9270101CB510101DA2398
:100428000101DA510101D86F0101D85100EC19F02E
:100438000001CD6F0101D95100EC19F00001CC6F1A
:10044800000E0101DA6F500ED96F010E436E000ED7
:10045800426E14D0360E4224D96E080E4320DA6E4E
:10046800DF5039EC19F00101CA6F0101CA510101CD
:10047800D927000EDA23424A432A00D04050425C72
:1004880041504358D8A0E6D70101DA510101D86F8D
:100498000101D85100EC19F00001D16F0101D951C7
:1004A80000EC19F00001D06F402800EC19F00001B1
:1004B800D66F1200000178510101CB6FCA6B0001A1
:1004C80076510101CA250101D96F0001000E010111
:1004D800CB210101DA6F29EE30F0DF5039EC19F049
:1004E8000101CA6FCB6B29EE31F0DF5039EC19F0FE
:1004F8000101CC6F0101CC510101CA27000ECB23A9
:1005080029EE32F0DF5039EC19F00101CD6F01010D
:10051800CD510101CA27000ECB2329EE33F0DF505D
:1005280039EC19F00101CE6F0101CE510101CA2742
:10053800000ECB2329EE34F0DF5039EC19F001011D
:10054800CF6F0101CF510101CA27000ECB2329EE3D
:1005580035F0DF5039EC19F00101D06F0101D051AD
:100568000101CA27000ECB230101D9510101CA2577
:100578000101D96F0101DA510101CB210101DA6FC3
:100588000101DA510101D86F0101D85100EC19F0CD
:100598000001CD6F0101D95100EC19F00001CC6FB9
:1005A800010190510101CB6FCA6B01018E5101010C
:1005B800CA250101D96F0101000E0101CB210101FA
:1005C800DA6F2AEE2AF0DF5039EC19F00101CA6F10
:1005D800CB6B2AEE2BF0DF5039EC19F00101CC6F10
:1005E8000101CC510101CA27000ECB232AEE2CF0C1
:1005F800DF5039EC19F00101CD6F0101CD51010136
:10060800CA27000ECB232AEE2DF0DF5039EC19F063
:100618000101CE6F0101CE510101CA27000ECB2383
:100628002AEE2EF0DF5039EC19F00101CF6F0101ED
:10063800CF510101CA27000ECB232AEE2FF0DF503D
:1006480039EC19F00101D06F0101D0510101CA271D
:10065800000ECB230101D9510101CA250101D96F2F
:100668000101DA510101CB210101DA6F29EE30F0E5
:10067800DF5039EC19F00101CA6FCB6B29EE31F06C
:10068800DF5039EC19F00101CC6F0101CC510101A7
:10069800CA27000ECB2329EE32F0DF5039EC19F0CF
:1006A8000101CD6F0101CD510101CA27000ECB23F5
:1006B80029EE33F0DF5039EC19F00101CE6F01015A
:1006C800CE510101CA27000ECB2329EE34F0DF50AA
:1006D80039EC19F00101CF6F0101CF510101CA278F
:1006E800000ECB2329EE35F0DF5039EC19F001016B
:1006F800D06F0101D0510101CA27000ECB2301019F
:10070800CA1FCB1FCA4BCB2B0101D9510101CA25E6
:100718000101D96F0101DA510101CB210101DA6F21
:100728002AEE30F0DF5039EC19F00101CA6FCB6BBB
:100738002AEE31F0DF5039EC19F00101CC6F0101DC
:10074800CC510101CA27000ECB232AEE32F0DF502C
:1007580039EC19F00101CD6F0101CD510101CA2712
:10076800000ECB232AEE33F0DF5039EC19F00101EB
:10077800CE6F0101CE510101CA27000ECB232AEE0C
:1007880034F0DF5039EC19F00101CF6F0101CF517E
:100798000101CA27000ECB232AEE35F0DF5039ECD1
:1007A80019F00101D06F0101D0510101CA27000ED3
:1007B800CB230101D9510101CA250101D96F0101DA
:1007C800DA510101CB210101DA6F0101DA5101018E
:1007D800D86F0101D85100EC19F00001CF6F010169
:1007E800D95100EC19F00001CE6F000E0101DA6F4B
:1007F800500ED96F020E436E000E426E14D0360EA4
:100808004224D96E080E4320DA6EDF5039EC19F015
:100818000101CA6F0101CA510101D927000EDA236B
:10082800424A432A00D04050425C41504358D8A025
:10083800E6D70101DA510101D86F0101D85100EC66
:1008480019F00001D16F0101D95100EC19F0000134
:10085800D06FD3C1D9F1D4C1DAF10101DA51010164
:10086800D86F0101D85100EC19F001013B6F01016B
:10087800D95100EC19F001013C6FFF0E0101D915A7
:100888000101CA6F000E0101DA150101CB6F0101E8
:10089800D8510101CA27000ECB23710E0101CA25C8
:1008A8000101D66F000E0101CB210101D76F0101B3
:1008B800D7510101D86F0101D65100EC19F001019F
:1008C8003D6F0101D85100EC19F001013E6F40283D
:1008D80000EC19F00001D66F1200050E0101DA6F65
:1008E8002A0ED96F40500F0B0101D26F40C0CAF1D8
:1008F80041C0CBF1040E0101CC6F0101D890CB337C
:10090800CA330101CC2FF9D70101CA39F00B010113
:10091800D56F0101D5510008D00F0101D16F010138
:10092800D2510101D8A41BD040C0CAF141C0CBF1BB
:10093800040E0101CC6F0101D890CB33CA330101F9
:10094800CC2FF9D70101CA39F00BF00F0101D56F8F
:100958000101D5510008D00F0101D16F00D001016C
:10096800D5510101D8B425D0D1C142F0436A12D083
:10097800360E4224D96E080E4320DA6EDF5001018C
:10098800CA6F0101CA510101D927000EDA23424A70
:10099800432A00D0435006E1D00E425CD8B002D0C2
:1009A800E7D700D00101D5510101D95F000EDA5B0C
:1009B80000D0000E436E000E426E21D0D00E4224AD
:1009C8000101CA6F000E43200101CB6F360E0101F1
:1009D800CA25D96E080E0101CB21DA6EDF5001015C
:1009E800CC6F0101CC510101D927000EDA23200E6A
:1009F8000101D95F000EDA5B424A432A00D00101A7
:100A0800D2510101CA6FCB6B0101CA51425C01018D
:100A1800CB514358D8A0D2D70101D2510101D8A453
:100A28002ED0000E436E000E426E435028E1100E89
:100A3800425CD8B024D001D022D0D00E422401018B
:100A4800CA6F000E43200101CB6F360E0101CA2583
:100A5800D96E080E0101CB21DA6EDF500101CC6F8F
:100A68000101CC510101D927000EDA23200E010122
:100A7800D95F000EDA5B424A432AD7D700D001017A
:100A8800DA510101D86F0101D85100EC19F00101C8
:100A9800CA6FCAC1BDFB0101D95100EC19F00101AF
:100AA800CA6FCAC1BCFB000E2D6E00D0F5EC09F070
:100AB8000009D8B41200FAD7120012003C50D8A48A
:100AC80002D0000E120020502110D8A405D062ECEC
:100AD8001DF0000E2B6E00D09EC0F0F09FC0F1F00C
:100AE8000001F01FF11FF04BF12B20500001F027FF
:100AF80021500001F1230001F15105E1780E0001B8
:100B0800F05DD8A006D054EC1DF05BEC1DF0000E93
:100B18001200000E0001A96F000EA86F000E000160
:100B2800AB6F000EAA6F010E0001C46F2250231094
:100B3800D8B407D1100E20240001F06F000E212038
:100B48000001F16F0001F051405C0001F151415882
:100B5800D8B02BD0000E0001EE6F2B50CEEC1CF05D
:100B68002B2A20C042F021C043F00ED0360E42247A
:100B7800D96E080E4320DA6EDF5039EC19F04DECCF
:100B88001DF0424A432A00D04050425C415043582D
:100B9800D8A0ECD7000E216E000E206E54EC1DF08C
:100BA8005BEC1DF0000E120043D2200E2024000141
:100BB800F06F000E21200001F16F0001F051405C40
:100BC8000001F1514158D8B05BD0000E0001EE6F22
:100BD8002B50CEEC1CF02B2A20C042F021C043F051
:100BE8000ED0360E4224D96E080E4320DA6EDF503E
:100BF80039EC19F04DEC1DF0424A432A00D0100E92
:100C080020240001F06F000E21200001F16F000187
:100C1800F051425C0001F1514358D8A0E2D754EC9E
:100C28001DF0000E0001EE6F2B50CEEC1CF02B2AAD
:100C3800100E2026000E212220C042F021C043F0D1
:100C48000ED0360E4224D96E080E4320DA6EDF50DD
:100C580039EC19F04DEC1DF0424A432A00D04050BF
:100C6800425C41504358D8A0ECD7000E216E000ECC
:100C7800206E54EC1DF05BEC1DF094D71200D8D117
:100C8800000E0001EE6F2B50CEEC1CF02B2A20C07A
:100C980042F021C043F00ED0360E4224D96E080E21
:100CA8004320DA6EDF5039EC19F04DEC1DF0424A62
:100CB800432A00D0100E20240001F06F000E2120DE
:100CC8000001F16F0001F051425C0001F1514358FD
:100CD800D8A0E2D754EC1DF0000E0001EE6F2B50A7
:100CE800CEEC1CF02B2A100E2026000E212220C04C
:100CF80042F021C043F00ED0360E4224D96E080EC1
:100D08004320DA6EDF5039EC19F04DEC1DF0424A01
:100D1800432A00D0100E20240001F06F000E21207D
:100D28000001F16F0001F051425C0001F15143589C
:100D3800D8A0E2D754EC1DF0100E2026000E212278
:100D480077D140500F0B0001F56F40C0F0F041C063
:100D5800F1F0040E0001F26F0001D890F133F03386
:100D68000001F22FF9D70001F039F00B0001F46F00
:100D78000001F4510008D00F0001F66F0001F55191
:100D88000001D8A41ED0100E0001F56F40C0F0F08D
:100D980041C0F1F0040E0001F26F0001D890F13368
:100DA800F0330001F22FF9D70001F039F00BF00F02
:100DB8000001F46F0001F4510008D00F0001F66F34
:100DC80000D0100E20240001F06F000E2120000139
:100DD800F16F40500001F05D41500001F159D8A079
:100DE80037D0000E0001EE6F2B50CEEC1CF02B2AF2
:100DF800000E436ED00E426E0ED0BC0E4224D96E49
:100E08000A0E4320DA6EDF5039EC19F04DEC1DF074
:100E1800424A432A00D00001F5510001F06FF16BFE
:100E2800D00E0001F027000EF1230001F051425CC2
:100E38000001F1514358D8A0E0D7000E216E000EF2
:100E4800206E54EC1DF05BEC1DF0ACD61200F0D017
:100E5800200E20240001F06F000E21200001F16F08
:100E680040500001F05D41500001F159D8A06BD00D
:100E7800C00E0001F36F000E0001EE6F2B50CEEC98
:100E88001CF02B2AF3C042F0436A0ED0BC0E422459
:100E9800D96E0A0E4320DA6EDF5039EC19F04DECAA
:100EA8001DF0424A432A00D00001F3510001F06FBF
:100EB800F16B100E0001F027000EF1230001F05134
:100EC800425C0001F1514358D8A0E0D7100E20260B
:100ED800000E212254EC1DF0000E0001EE6F2B5085
:100EE800CEEC1CF02B2A000E436ED00E426E0ED0B4
:100EF800BC0E4224D96E0A0E4320DA6EDF5039EC5C
:100F080019F04DEC1DF0424A432A00D00001F5517A
:100F18000001F06FF16BD00E0001F027000EF123F5
:100F28000001F051425C0001F1514358D8A0E0D7CC
:100F3800000E216E000E206E54EC1DF05BEC1DF0CF
:100F480031D6120075D0000E0001EE6F2B50CEEC9A
:100F58001CF02B2A0001F6512024426E000E21209D
:100F6800436E0ED0BC0E4224D96E0A0E4320DA6EB0
:100F7800DF5039EC19F04DEC1DF0424A432A00D0FD
:100F88000001F65120240001F06F000E212000011D
:100F9800F16F100E0001F027000EF1230001F0514F
:100FA800425C0001F1514358D8A0DCD754EC1DF045
:100FB800000E0001EE6F2B50CEEC1CF02B2A100E09
:100FC8002026000E21220001F6512024426E000E38
:100FD8002120436E0ED0BC0E4224D96E0A0E432047
:100FE800DA6EDF5039EC19F04DEC1DF0424A432A15
:100FF80000D00001F65120240001F06F000E2120DE
:101008000001F16F100E0001F027000EF12300011E
:10101800F051425C0001F1514358D8A0DCD754ECA0
:101028001DF0100E2026000E2122010E120000D005
:10103800000E120012008646C626A666E6169656CA
:10104800D636B676F60E8E4ECE2EAE6EEE1E9E5E60
:101058008242C222A262E2129252D232B272F20AE0
:101068008A4ACA2AAA6AEA1A9A5A86864646C6C680
:101078002626A6A66666E6E6161696965656D6D688
:101088003636B6B67676F6F60E0E8E8E4E4ECECE38
:101098002E2EAEAE6E6EEEEE1E1E9E9E5E5E8282A0
:1010A8004242C2C22222A2A26262E2E212129292D8
:1010B8005252D2D23232B2B27272F2F20A0A8A8A28
:1010C8004A4ACACA2A2AAAAA6A6AEAEA1A1A9A9A38
:1010D8005A5A868686464646C6C6C6262626A6A6E0
:1010E800A6666666E6E6E616161696969656565668
:1010F800D6D6D6363636B6B6B6767676F6F6F60E50
:101108000E0E8E8E8E4E4E4ECECECE2E2E2EAEAED7
:10111800AE6E6E6EEEEEEE1E1E1E9E9E9E5E5E5EB7
:10112800828282424242C2C2C2222222A2A2A26277
:101138006262E2E2E2121212929292525252D2D2B7
:10114800D2323232B2B2B2727272F2F2F20A0A0ACF
:101158008A8A8A4A4A4ACACACA2A2A2AAAAAAA6AC7
:101168006A6AEAEAEA1A1A1A9A9A9A5A5A5A8686AF
:10117800868646464646C6C6C6C626262626A6A647
:10118800A6A666666666E6E6E6E616161616969657
:10119800969656565656D6D6D6D636363636B6B627
:1011A800B6B676767676F6F6F6F60E0E0E0E8E8EC7
:1011B8008E8E4E4E4E4ECECECECE2E2E2E2EAEAE87
:1011C800AEAE6E6E6E6EEEEEEEEE1E1E1E1E9E9E97
:1011D8009E9E5E5E5E5E8282828242424242C2C2BF
:1011E800C2C222222222A2A2A2A262626262E2E217
:1011F800E2E2121212129292929252525252D2D2A7
:10120800D2D232323232B2B2B2B272727272F2F2F6
:10121800F2F20A0A0A0A8A8A8A8A4A4A4A4ACACAD6
:10122800CACA2A2A2A2AAAAAAAAA6A6A6A6AEAEA56
:10123800EAEA1A1A1A1A9A9A9A9A5A5A5A5A86868E
:101248008686864646464646C6C6C6C6C626262656
:101258002626A6A6A6A6A66666666666E6E6E6E666
:10126800E616161616169696969696565656565686
:10127800D6D6D6D6D63636363636B6B6B6B6B67626
:1012880076767676F6F6F6F6F60E0E0E0E0E8E8E4E
:101298008E8E8E4E4E4E4E4ECECECECECE2E2E2E86
:1012A8002E2EAEAEAEAEAE6E6E6E6E6EEEEEEEEE96
:1012B800EE1E1E1E1E1E0000000000000404040492
:1012C80004040404040404040404040404040404D6
:1012D800040404040404040404040404A2B20A5C1C
:1012E8002AA2CA2A0404040404040404040CF42AE8
:1012F800A2CA2AFA32F22A0404F40C0404040404EC
:1013080004040404F40404040404040404040404A5
:1013180004040404040404040404040432F2C25C53
:1013280004040404040404040404040472F24AB225
:10133800325C4C0C8CECF48C8CF48C2C040404047F
:101348000404040404040404040404048A22AAA26D
:101358005C040404040404040404040472F22AA2CD
:101368008C5C040404040404040404040404040455
:1013780004040404040404040404040472F22AA205
:101388004C5C040404040404040404040404040475
:101398000404040404040404040404046AA64ECEE9
:1013A80096F67604CC74EC040404040404300404B3
:1013B8006094000000000000000000002864009015
:1013C8000A00000000000000000A00000000000001
:1013D8000000000000000000000000000000000005
:1013E8000000000E0001A96F000EA86F000E00019A
:1013F800AB6F000EAA6F010E0001C46F22502310BC
:10140800D8B425D0000E436E000E426E18D0030EDD
:101418002D640CD0360E4224D96E080E4320DA6EA5
:10142800DF5039EC19F0F0EC1AF000D02D2A0F0E2D
:101438002D6402D0000E1200424A432A00D04050C8
:10144800425C41504358D8B06AD1E1D768D1405086
:101458000F0B0001F46F40C0EFF041C0F0F0040E34
:101468000001F16F0001D890F033EF330001F12F44
:10147800F9D70001EF39F00B0001F36F0001F351C8
:101488000008D00F0001F56F0001F4510001D8A445
:101498001ED0100E0001F46F40C0EFF041C0F0F014
:1014A800040E0001F16F0001D890F033EF33000112
:1014B800F12FF9D70001EF39F00BF00F0001F36FAE
:1014C8000001F3510008D00F0001F56F00D02D5036
:1014D8000001EF6FF06B100E0001EF27000EF023F4
:1014E80040500001EF5D41500001F059D8A034D0C0
:1014F800000E436ED00E426E18D0030E2D640CD031
:10150800BC0E4224D96E0A0E4320DA6EDF5039EC45
:1015180019F0F0EC1AF000D02D2A0F0E2D6402D02D
:10152800000E1200424A432A00D00001F451000183
:10153800EF6FF06BD00E0001EF27000EF0230001D3
:10154800EF51425C0001F0514358D8A0D6D7000EA5
:101558002D6E000E1200E3D02D500001EF6FF06BDE
:10156800200E0001EF27000EF02340500001EF5D30
:1015780041500001F059D8A063D0C00E0001F26FAD
:10158800F2C042F0436A18D0030E2D640CD0BC0E92
:101598004224D96E0A0E4320DA6EDF5039EC19F076
:1015A800F0EC1AF000D02D2A0F0E2D6402D0000E98
:1015B8001200424A432A00D00001F2510001EF6FA5
:1015C800F06B100E0001EF27000EF0230001EF5121
:1015D800425C0001F0514358D8A0D6D7000E436EA4
:1015E800D00E426E18D0030E2D640CD0BC0E4224CF
:1015F800D96E0A0E4320DA6EDF5039EC19F0F0ECA0
:101608001AF000D02D2A0F0E2D6402D0000E120001
:10161800424A432A00D00001F4510001EF6FF06BF9
:10162800D00E0001EF27000EF0230001EF51425CBD
:101638000001F0514358D8A0D6D78BD712006FD0ED
:101648000001F5512D24426E436A433618D0030E2B
:101658002D640CD0BC0E4224D96E0A0E4320DA6EDB
:10166800DF5039EC19F0F0EC1AF000D02D2A0F0EEB
:101678002D6402D0000E1200424A432A00D0000115
:10168800F5512DC0EFF00001F06B0001EF27000EBF
:10169800F023100E0001EF27000EF0230001EF5198
:1016A800425C0001F0514358D8A0D1D72D50000119
:1016B800F525426E436A433618D0030E2D640CD0CC
:1016C800BC0E4224D96E0A0E4320DA6EDF5039EC84
:1016D80019F0F0EC1AF000D02D2A0F0E2D6402D06C
:1016E800000E1200424A432A00D00001F5512DC0D5
:1016F800EFF00001F06B0001EF27000EF023100E51
:101708000001EF27000EF0230001EF51425C0001B9
:10171800F0514358D8A0D1D7010E120000D0000EC6
:10172800120012000001F56F3D2A140E2C600CD037
:101738002C50010D600EF324D96E000EF420DA6EE1
:10174800F5C0DFFF2C2A00D0EF0E0001F519D8A450
:1017580002D0449200D0020E3D18D8A41DD07F0EAE
:101768000001F519D8A418D0690E0001C76F000E42
:101778003D6E000E276E000E266E300E265C750E2E
:101788002758D8B005D001D003D0264A272AF5D744
:10179800600E3DEC1DF01200060E3D18D8A408D0CE
:1017A800BB0E0001F519D8A403D0000E396E00D085
:1017B800070E3D18D8A451D06E0E0001F519D8A413
:1017C80019D06A0E0001C76F000E3D6E000E276E1D
:1017D800000E266E100E265C270E2758D8B005D0AE
:1017E80001D003D0264A272AF5D7600E3DEC1DF01C
:1017F800120033D0630E0001F519D8A40FD0140ECF
:101808003D6E4492000E296E000E286E010E0001F6
:10181800CA6F000E396E010E2F6E1FD044B20AD067
:10182800140E3D6E4492010E396E000E296E000EA4
:10183800286E13D0000E276E000E266EE80E265C6A
:10184800030E2758D8B005D001D003D0264A272A3E
:10185800F5D7600E3DEC1DF000D0F50E0001F5192E
:10186800D8A469D00F0E0001BB6F2BEC1DF0140E2D
:101878003D6E4482000E296E000E286EBC0E0001DB
:10188800ED6F0A0E0001EE6F000E0001F06F000E02
:10189800EF6F000E0001F26FD10EF16FADEC1BF08F
:1018A800000E296ED10E286E000E436E000E426E99
:1018B800435014E1200E425CD8B010D001D00ED0B5
:1018C800BC0E2824D96E0A0E2920DA6E040EDF6EAB
:1018D800284A292A424A432AEBD700D0BC0E28249A
:1018E800D96E0A0E2920DA6E500EDF6E284A292A90
:1018F800000E436E000E426E435015E1050E425C29
:10190800D8B011D001D00FD0BC0E2824D96E0A0E41
:101918002920DA6E000EDF6E284A292A424A432A15
:10192800435001E1EBD70B0EE8CFACFB000E296E5C
:10193800000E286E00D0130E3D641200000E3D6E9E
:1019480044A27FD07B0E00016719D8A42CD00001D7
:10195800685100080101CA6F0101CA0539EC19F084
:101968000101CB6F0001695100080101CC6F010131
:10197800CC0539EC19F00101CD6F0101CD51010100
:10198800CF6FCE6B0101CB510101CE25406E010115
:10199800000E0101CF21416E4006D8A04106000E7D
:1019A800236E010E46D000016B5100080101CA6F79
:1019B8000101CA0539EC19F00101CB6F00016C5126
:1019C80000080101CC6F0101CC0539EC19F00101C7
:1019D800CD6F0101CD510101CF6FCE6B0101CB510C
:1019E8000101CE25406E0101000E0101CF21416E9B
:1019F8004006D8A04106000E3F6E000E396E4150D9
:101A080004E1C90E405CD8A009D0415007E1DD0EC1
:101A1800405CD8B003D0010E3F6E08D0F30E4018DA
:101A28004110D8A403D0010E396E00D0000E236EE9
:101A3800000E226E010E0001C66F120E0001C76F64
:101A48001200030E0001C76F12001200000E010100
:101A5800DA6F000ED96F000E0101D66F000ED56F38
:101A680040C0CAF141C0CBF10101CA1FCB1FCA4B0C
:101A7800CB2BF60E0101CA27000ECB23040E010161
:101A8800CC6F0101D890CB33CA330101CC2FF9D7E1
:101A98000101CA39F00B0101D86F000E436E000E28
:101AA800426E0BD0BC0E4224D96E0A0E4320DA6E69
:101AB800040EDF6E424A432A00D00101D8510101C9
:101AC800CA6FCB6B0101CA51425C0101CB5143582B
:101AD800D8A0E8D73F50D8B42BD0000E436E000EE4
:101AE800426E1ED00101D85142240101CA6F000E76
:101AF80043200101CB6FBC0E0101CA25D96E0A0E25
:101B08000101CB21DA6E360E4224E16E080E432025
:101B1800E26EE75039EC19F0DF6E424A432A00D0F2
:101B28004050425C41504358D8B02DD0DBD72BD021
:101B3800000E436E000E426E1ED00101D8514224A1
:101B48000101CA6F000E43200101CB6FBC0E0101D9
:101B5800CA25D96E0A0E0101CB21DA6E360E42244F
:101B6800E16E080E4320E26EE75039EC19F0DF6EA3
:101B7800424A432A00D04050425C41504358D8B0B2
:101B880002D0DBD700D0FE0E0101CA6FFF0E0101A3
:101B9800CB6F40C0CCF141C0CDF10101CA51010168
:101BA800CC270101CB510101CD23360E0101CC25F3
:101BB800D96E080E0101CD21DA6EDF500101CE6F1A
:101BC800360E4024D96E080E4120DA6EDF5001012E
:101BD800CF6F0101CF510101D16FD06B0101CE51FF
:101BE8000101D0250101D56F0101000E0101D121AC
:101BF8000101D66FC00E0101CA6F1E0E0101CB6F25
:101C080040C0CCF141C0CDF10101CC1FCD1FCC4B60
:101C1800CD2B050ED8900101CC37CD37E82EFAD759
:101C28000101CA510101CC270101CB510101CD238A
:101C38000101CC510101D5270101CD510101D62364
:101C4800D5C1D9F1D6C1DAF10101DA510101D46F58
:101C58000101D95100EC19F00001D46F0101D451F0
:101C680000EC19F00001D56F800E0101D5250101A6
:101C7800D96F010E0101D6210101DA6F0101DA5194
:101C88000101D46F0101D95100EC19F00001D26FA4
:101C98000101D45100EC19F00001D36FF00E0101DD
:101CA800D76F00D00101D70700D0D00E0101D7654A
:101CB8000FD00101D751010D360EF324D96E080E4D
:101CC800F420DA6E200EDE18D8A402D0EBD700D0AC
:101CD80029EE26F0DF500101CA6FCB6B0101CA1F44
:101CE800CB1FCA4BCB2BD00E0101CA250001B86F00
:101CF800000E0101CB210001B96F0101D75100018C
:101D0800B8250101CA6F000E0001B9210101CB6F8E
:101D1800310E0101CA250101D26FFF0E0101CB214D
:101D28000101D36F0101D85140240001EB6F000E6F
:101D380041200001EC6F3F50D8B405D040C0EFF00F
:101D480041C0F0F01200D2C1EFF0D3C1F0F01200A0
:101D5800000E0001C76F000E0001C26F000E0001E7
:101D6800A96F000EA86F000E0001AB6F000EAA6FDE
:101D7800000E0001B56F000EB46F000E0001B76FC2
:101D8800000EB66F00D08B9400D09BEC1DF0000EB7
:101D9800436E000E426E100E425C270E4358D8B0B8
:101DA80005D001D003D0424A432AF5D769EC1DF08B
:101DB800000E436E000E426E100E425C270E435812
:101DC800D8B005D001D003D0424A432AF5D78DECCC
:101DD80018F000D024502510D8B422D08B7400D02D
:101DE8009FEC19F00101DB6F000E0001A96F000ED6
:101DF800A86F000E0001AB6F000EAA6F3A50D8B45E
:101E080006D00101DB51FF0A55EC14F000D0000E9A
:101E1800436E010E426E0101DB51CFEC11F054D03C
:101E28000001A84BA92B110E0001A85D270E000187
:101E3800A959D8A025D0000E0001A96F000EA86FDF
:101E48000001AA4BAB2B0001AB5105E1020E0001CA
:101E5800AA5DD8A015D08B9400D0010E0001BC6FEC
:101E6800010E3C6EAA0E45EC1DF0000E0001A96F94
:101E7800000EA86F000E0001AB6F000EAA6F00D015
:101E88003150D8B40FD0F0EC1CF0000E316E000EBB
:101E98000001A96F000EA86F000E0001AB6F000EC5
:101EA800AA6F00D03050D8B40FD0FFEC1CF0000E51
:101EB800306E000E0001A96F000EA86F000E000121
:101EC800AB6F000EAA6F00D00001BC51D8B482D706
:101ED800000E0001BC6F0001C251D8A404D000015B
:101EE800C151D8B42DD03A50D8B419D022502310AB
:101EF800D8B405D0000E3E6E65EC00F009D02AEC8F
:101F08000DF0EFC040F0F0C041F065EC00F000D0FB
:101F1800010E2A6E000E216E000E206E00D0000EFB
:101F28000001C76F000E0001C26F000E0001C16FF3
:101F3800000E3A6E000E0001AD6F000EAC6F00D0BF
:101F4800000E0001A96F000EA86F000E0001AB6F14
:101F5800000EAA6F0001C451D8B406D0000E0001CB
:101F6800C46F62EC1DF000D02A50D8B410D0000E17
:101F78002A6E2BEC1DF0000E00019F6F000E9E6F65
:101F88004DEC1CF0000E436E000E426E00D0B8827D
:101F98002A50D8A41FD70001BB51D8B403D00001E0
:101FA800BB0718D78B8403008B9414D7120055EC09
:101FB8001BF0000E276E000E266E400E265C060EE5
:101FC8002758D8B005D001D003D0264A272AF5D7FC
:101FD8003D2A600E3DEC1DF0000E436E000E426E71
:101FE800435028E1030E425CD8B024D001D022D05F
:101FF8003950D8B40AD0E20E4224D96E000E4320DC
:10200800DA6EDF503DEC1DF00AD0DF0E4224D96EA7
:10201800000E4320DA6EDF503DEC1DF000D0000EBC
:10202800276E000E266E02D0264A272A424A432AE5
:10203800D7D700D0040E0001C76F000E3D6E3D2AB1
:10204800000E436E000E426E435025E1D00E425CF6
:10205800D8B021D001D01FD022502310D8B404D03A
:10206800000E3DEC1DF00CD0BC0E2824D96E0A0ED3
:102078002920DA6EDF503DEC1DF0284A292A00D0CD
:10208800000E276E000E266E02D0264A272A424AE4
:10209800432ADAD700D0000E3D6E060E0001C76F46
:1020A8003D2A3950D8A403D02F50D8B445D0000EBB
:1020B800436E000E426E24D022502310D8B40AD0AA
:1020C800000E2824D96E010E2920DA6EDF503DEC6F
:1020D8001DF009D0BC0E2824D96E0A0E2920DA6E0C
:1020E800DF503DEC1DF0284A292A00D0000E276E4B
:1020F800000E266E02D0264A272A424A432A00D0DA
:10210800FE0E0001EF6FFF0E0001F06FEBC0F1F063
:10211800ECC0F2F00001EF510001F1270001F0518D
:102128000001F2230001F151285C0001F251295805
:10213800D8B033D0C1D731D0000E436E000E426EF6
:1021480043502BE1300E425CD8B027D001D025D0C7
:1021580022502310D8B40AD0000E2824D96E010EBC
:102168002920DA6EDF503DEC1DF009D0BC0E282482
:10217800D96E0A0E2920DA6EDF503DEC1DF0284A90
:10218800292A00D0000E276E000E266E02D0264A9D
:10219800272A424A432AD4D700D0000E3D6E070EA4
:1021A8000001C76F12000001F36F3D2A44A2E7D077
:1021B80022502310D8A496D0A7D094D0FC0E0001AA
:1021C800F319D8A41200010E0001C66F1200000115
:1021D800F329D8A407D0460E4DEC1DF0020E0001DD
:1021E800C66F1200000E0001C66F1200B50E000186
:1021F800F319D8A407D0420E4DEC1DF0040E0001CF
:10220800C66F1200000E0001C66F12000001F3290C
:10221800D8A404D0040E0001C66F1200000E0001FD
:10222800C66F12000001F329D8A458D0000E3D6EE5
:10223800010E0001C16F000E0001A96F000EA86F0A
:10224800000E0001AB6F000EAA6FCA0E3DEC1DF028
:10225800000E276E000E266EF40E265C010E27581F
:10226800D8B005D001D003D0264A272AF5D7600E6A
:102278003DEC1DF0000E276E000E266EF40E265C57
:10228800010E2758D8B005D001D003D0264A272AF6
:10229800F5D7600E3DEC1DF0000E3D6E000E3D6E54
:1022A80022502310D8B416D0224A232A235004E1FE
:1022B800040E225CD8A00ED0000E0001A96F040EF7
:1022C800A86F270E0001AB6F130EAA6F010E000155
:1022D800BC6F00D0010E0001C66F1200000E000195
:1022E800C66F12000001C651000AD8B467D7010AA8
:1022F800D8B46DD7030AD8B479D7010AD8B486D729
:10230800070AD8B48FD71200020E40240001EF6FDD
:10231800000E41200001F06F3D500001F16FF26B9B
:102328000001EF510001F15D0001F0510001F25987
:10233800D8A01200000E276E000E266EF40E265C42
:10234800010E2758D8B005D001D003D0264A272A35
:10235800F5D755EC1BF0600E3DEC1DF0010E0001A9
:10236800BC6F000E0001C76F000E0001A96F010EBF
:10237800A86F270E0001AB6F100EAA6F1200000E97
:102388000001A96F010EA86F270E0001AB6F100E98
:10239800AA6F120012000001F76FF7C03BF07ED061
:1023A800DF0E3B18D8A419D0CA0E3DEC1DF0000E64
:1023B8003D6E010E0001C26F000E0001A96F000EF4
:1023C800A86F000E0001AB6F000EAA6FC80E0001C7
:1023D800C76F000E0001C66F00D0B50E0001F719D7
:1023E800D8A41200000E3D6E010E0001C26F000E4F
:1023F8000001A96F000EA86F000E0001AB6F000E60
:10240800AA6F6E0E0001C76F000E0001C66F1200A2
:102418009DEC15F012000001F75196EC0BF012003C
:10242800DBEC0FF012009BEC12F01200F9EC16F046
:10243800120044EC17F0120075EC1BF01200C9EC06
:1024480014F0120034EC1BF01200D3EC17F0120059
:10245800C7EC18F0120072EC19F012001DEC1DF018
:102468001200CCEC19F0120041EC1AF000D01DEC6F
:102478001AF012003AEC15F0120092EC1BF000D0A2
:10248800CEEC1AF0120094EC1CF0120055EC16F089
:1024980012000001F751D7EC10F012000001C751EB
:1024A800000AD8B47DD7010AD8B4B2D7030AD8B481
:1024B800B2D7010AD8B4B4D7040AD8B4B4D70F0A2B
:1024C800D8B4B4D7010AD8B4B7D7030AD8B4B7D7A1
:1024D800010AD8B4B7D7070AD8B4B7D7010AD8B40D
:1024E800B7D7030AD8B4B7D71C0AD8B4B7D7430AA2
:1024F800D8B49FD7340AD8B41200030AD8B4B1D7D5
:10250800010AD8B4B1D70E0AD8B4B1D7030AD8B4DF
:10251800B1D7060AD8B4B1D7020AD8B4B1D7A90A34
:10252800D8B4B1D70F0AD8B4B1D7B3D712003D2A5F
:1025380055EC1BF02F50D8B453D0000E436E000E4C
:10254800426E06D0040E3DEC1DF0424A432A00D0EC
:10255800020E0001EF6F010E0001F06FEBC0F1F009
:10256800ECC0F2F00001F11FF21FF14BF22B000159
:10257800EF510001F1270001F0510001F2230001A1
:10258800F151425C0001F2514358D8A0DBD7000159
:10259800D2513DEC1DF0000E276E000E266E03D0C2
:1025A800264A272A00D00001D3513DEC1DF0000E29
:1025B800436E000E426E435045E10D0E425CD8B0AA
:1025C80041D001D03FD0810E4224D96E010E432064
:1025D800DA6EDF503DEC1DF0424A432AECD732D088
:1025E800000E436E000E426E06D0040E3DEC1DF048
:1025F800424A432A00D0EBC0EFF0ECC0F0F00001F3
:10260800EF1FF01FEF4BF02BF60E0001EF27000E27
:10261800F0230001EF51425C0001F0514358D8A06B
:10262800E4D70001D4513DEC1DF0000E276E000EDA
:10263800266E03D0264A272A00D00001D5513DEC4A
:102648001DF000D0000E3D6E640E0001C76F120031
:10265800000E436E000E426E43502BE1020E425CA8
:10266800D8B027D001D025D022502310D8B40AD012
:10267800000E2824D96E010E2920DA6EDF503DECB9
:102688001DF009D0BC0E2824D96E0A0E2920DA6E56
:10269800DF503DEC1DF0284A292A00D0000E276E95
:1026A800000E266E02D0264A272A424A432AD4D749
:1026B80000D0000E3D6E080E0001C76F1200120018
:1026C80003EEC8F014EE6EF0EE6AE550E150FCE15E
:1026D800E250FAE103EE00F0C80EEE6AE806FDE10A
:1026E80001EE8EF03C0EEE6AE806FDE100EE60F0C9
:1026F8006C0EEE6AE806FDE1446A00EE20F01E0E5C
:10270800EE6AE806FDE13E0EF66E100EF76E000E5C
:10271800F86E08EE36F013EEABF00900F5CFEEFFD9
:10272800E550E150FAE1E250F8E12A0EF66E300E7B
:10273800F76E000EF86E02EE00F010EE7AF0090067
:10274800F5CFEEFFE550E150FAE1180EF66E2F0EC8
:10275800F76E000EF86E01EE00F010EE8EF0090034
:10276800F5CFEEFFE550E150FAE1BE0EF66E390EF8
:10277800F76E000EF86E00EECCF010EE21F00900B6
:10278800F5CFEEFFE550E150FAE1320EF66E3B0E62
:10279800F76E000EF86E00EE3EF010EE04F0090041
:1027A800F5CFEEFFE550E150FAE1000EF86E0001BA
:1027B800A9EF1CF00001F3510001D8B425D0CA0ECE
:1027C8003DEC1DF0000E276E000E266EF40E265C02
:1027D800010E2758D8B005D001D003D0264A272AA1
:1027E800F5D7600E3DEC1DF0000E276E000E266E2C
:1027F800F40E265C010E2758D8B006D001D004D0BC
:10280800264A272AF5D700D00001EF05010E00015E
:10281800F059D8B003D0F1C0E6F003D0810E000122
:10282800E66F000E436E000E426E435039E1030E10
:10283800425CD8B0120001D012000001EF2900015B
:10284800F011D8A40AD0E80E4224D96E000E432015
:10285800DA6EDF503DEC1DF018D00001F005D8B05D
:102868000AD0E50E4224D96E000E4320DA6EDF50FE
:102878003DEC1DF00AD0DF0E4224D96E000E432035
:10288800DA6EDF503DEC1DF000D0000E276E000E12
:10289800266E02D0264A272A424A432AC6D7120061
:1028A80012000001EF6F22502310D8B45CD04150C1
:1028B80004E1FA0E405CD8A04CD00001AD5105E10E
:1028C800FA0E0001AC5DD8A019D0040E0001AC5D71
:1028D800010E0001AD59D8B011D00001BD51010D54
:1028E800760EF324D96E000EF420DA6E0001EF5153
:1028F80039EC19F0DF6E0001BD2B43D0FE0E00014C
:10290800AC5D010E0001AD59D8A019D0080E000128
:10291800AC5D020E0001AD59D8B011D00001BE5116
:10292800010D8E0EF324D96E010EF420DA6E00012B
:10293800EF5139EC19F0DF6E0001BE2B22D0360EB4
:102948002824D96E080E2920DA6EEFC0DFFF16D0D2
:1029580018D0360E2824D96E080E2920DA6EEFC05A
:10296800DFFF0CD00ED0360E2824D96E080E292091
:10297800DA6E0001EF5139EC19F0DF6E284A292A86
:1029880000D00001AC4BAD2B12003D2A7F0E3B1846
:10299800D8A41200BDEC1CF0000E276E000E266EA7
:1029A800D00E265C070E2758D8B005D001D003D02A
:1029B800264A272AF5D74004010E4158D8B01CD022
:1029C80040C0CCF141C0CDF1000E0001F06F000E07
:1029D800EF6FCCC1F1F0CDC1F2F0D0C0F3F0D1C0AF
:1029E800F4F052EC18F0000E3D6E010E0001BC6FC1
:1029F800640E0001C76F12004004020E4158D8B09F
:102A08001AD0000E0001F06F000EEF6F010E0001EA
:102A1800F26F000EF16FCCC0F3F0CDC0F4F052ECC1
:102A280018F0000E3D6E0B0E0001C76F55EC1BF041
:102A380034EC1BF01200000E0001F06F000EEF6F77
:102A4800010E0001F26F000EF16FCCC0F3F0CDC0A3
:102A5800F4F052EC18F0000E3D6E0B0E0001C76F3B
:102A680055EC1BF034EC1BF012001200000E436E04
:102A7800000E426E435022E1030E425CD8B01ED0D5
:102A880001D01CD0DC0E4224D96E000E4320DA6E31
:102A9800DF503DEC1DF0000E276E000E266E880EEE
:102AA800265C130E2758D8B005D001D003D0264A8B
:102AB800272AF5D7424A432ADDD700D0000E436EB5
:102AC800000E426E435022E17A0E425CD8B01ED00E
:102AD80001D01CD0000E4224D96E020E4320DA6EBB
:102AE800DF503DEC1DF0000E276E000E266E880E9E
:102AF800265C130E2758D8B005D001D003D0264A3B
:102B0800272AF5D7424A432ADDD700D0000E000114
:102B1800C76F000E3D6E000E0001A96F040EA86F6E
:102B2800270E0001AB6F130EAA6F010E0001BC6FD8
:102B380012003D2AB50E3B18D8A416D0000E3D6EE3
:102B4800010E0001C26F000E0001A96F000EA86FF0
:102B5800000E0001AB6F000EAA6F6E0E0001C76F6A
:102B6800000E0001C66F00D0770E3B18D8B404D011
:102B7800F70E3B18D8A41ED0000E2F6E770E3B1808
:102B8800D8A402D0448202D0449200D0000E0001A2
:102B9800CA6F000E3D6E020E0001C76F000E2C6E4C
:102BA800000E0001BD6F000E0001BE6F000E000197
:102BB800BF6F00D0DF0E3B18D8A41200C70E00016B
:102BC800C76F000E3D6E000E276E000E266EE80ED3
:102BD800265C030E2758D8B005D001D003D0264A6A
:102BE800272AF5D7600E3DEC1DF0120012000001F7
:102BF800ED6F21D0300E1200310E1200320E12008D
:102C0800330E1200340E1200350E1200360E12006A
:102C1800370E1200380E1200390E1200410E120043
:102C2800420E1200430E1200440E1200450E12000E
:102C3800460E120033D00001ED51000AD8B4DAD79D
:102C4800010AD8B4D9D7030AD8B4D8D7010AD8B456
:102C5800D7D7070AD8B4D6D7010AD8B4D5D7030A24
:102C6800D8B4D4D7010AD8B4D3D70F0AD8B4D2D796
:102C7800010AD8B4D1D7030AD8B4D0D7010AD8B436
:102C8800CFD7070AD8B4CED7010AD8B4CDD7030A0C
:102C9800D8B4CCD7010AD8B4CBD700D0000E1200D4
:102CA8001200000E0001EF6F000E436E000E426E20
:102CB80043501FE1170E425CD8B01BD001D019D089
:102CC8000001EF51010D680EF324D96E010EF420B6
:102CD800DA6EDF503DEC1DF00001EF2B000E276E81
:102CE800000E266E02D0264A272A424A432AE0D7F7
:102CF80000D0000E436E000E426E43501FE1020EDC
:102D0800425CD8B01BD001D019D00001EF51010DA1
:102D1800680EF324D96E010EF420DA6EDF503DEC14
:102D28001DF00001EF2B000E276E000E266E02D05C
:102D3800264A272A424A432AE0D700D0660E0001D5
:102D4800C76F000E3D6E1200EACF15F0E1CF16F006
:102D5800E2CF17F0D9CF18F0DACF19F0F3CF1AF085
:102D6800F4CF1BF0F6CF1CF0F7CF1DF0F8CF1EF014
:102D7800F5CF1FF0F2B8F2A203D095EC1DF018D0F1
:102D8800F0B6F0A003D091EC1DF012D0A3B8A4A81F
:102D980003D0FEEC1BF00CD0A3BAA4AA03D065ECB8
:102DA8001CF006D0F2B6F2A003D09FEC1DF000D0C4
:102DB8001FC0F5FF1EC0F8FF1DC0F7FF1CC0F6FFBF
:102DC8001BC0F4FF1AC0F3FF19C0DAFF18C0D9FFFF
:102DD80017C0E2FF16C0E1FF15C0EAFF14C0E9FF03
:102DE80013C0FBFF12C0FAFF11003D2A570E3B1813
:102DF800D8A408D0020E285E000E295A070E00013A
:102E0800C76F00D0000E436E000E426E43502BE198
:102E1800080E425CD8B027D001D025D0225023100C
:102E2800D8B40AD0000E2824D96E010E2920DA6EF3
:102E3800DF503DEC1DF009D0BC0E2824D96E0A0ED7
:102E48002920DA6EDF503DEC1DF0284A292A00D0EF
:102E5800000E276E000E266E02D0264A272A424A06
:102E6800432AD4D700D0000E3D6E510E0001C76F23
:102E7800120055EC1BF0640E0001C76F120012001F
:102E8800000E436E000E426E43502BE1050E425C6D
:102E9800D8B027D001D025D022502310D8B40AD0DA
:102EA800000E2824D96E010E2920DA6EDF503DEC81
:102EB8001DF009D0BC0E2824D96E0A0E2920DA6E1E
:102EC800DF503DEC1DF0284A292A00D0000E276E5D
:102ED800000E266E02D0264A272A424A432AD4D711
:102EE80000D0000E3D6E000E296E000E286E225096
:102EF8002310D8B406D055EC1BF0090E0001C76F9B
:102F0800120055EC1BF0640E0001C76F120012008E
:102F180084040404040404040404040404040404E9
:102F28000404040404040404040404040404040459
:102F380057500000000000000000000000000000E2
:102F4800A2A000900A000000008400C4FEC880000F
:102F580061313233343536373839613132333435CB
:102F680036373839613132333435363738393031DC
:102F7800313131313131313100A84200CD0D5BDCC6
:102F880080C2FFD6C8FF13AA005E0000BE690024F5
:102F98001000900A00000000000000000A003D2A0E
:102FA8009F0E3B18D8A412004004020E4158D8B016
:102FB8001DD0000E40240101CA6FFF0E41200101FF
:102FC800CB6F000E0001F06F000EEF6FCAC1F1F079
:102FD800CBC1F2F0D0C0F3F0D1C0F4F052EC18F04D
:102FE800000E3D6E640E0001C76F1200000E000156
:102FF800F06F000EEF6F010E0001F26F000EF16F1F
:10300800CEC0F3F0CFC0F4F052EC18F0000E3D6ED5
:103018000D0E0001C76F55EC1BF0C7EC18F012003D
:1030280012008C004C00CC00DCD5D17BF712C5D047
:10303800D7F7D5F3F1FF5F73257447DC3D5DC46DA9
:103048005F84FFE4D79DD96D799977F751E72D58BB
:10305800B3673BB44BB5567ED0FB05171C3558BE3D
:10306800BCF6D5E95136E3544F5C5D511D4F65F50B
:103078007B31C1E5C451681FC28D8D7574F94784D1
:1030880097BE579D537013FD125BDF555272D4C023
:1030980034BCDDE56E6374255D1385C2EFC042F074
:1030A800F0C043F015D0360E2824D96E080E29201A
:1030B800DA6EDF503DEC1DF0284A292A000E276EF3
:1030C800000E266E02D0264A272A424A432A00D0FA
:1030D8000001F151425C0001F2514358D8A0E3D7F6
:1030E8000001F3513DEC1DF0000E276E000E266E18
:1030F80027500AE1640E265CD8B006D001D004D06F
:10310800264A272AF5D700D00001F4513DEC1DF0DE
:1031180012000F0E0001BB6F62EC1DF0000E0001E3
:10312800EE6F030ECEEC1CF0490E4DEC1DF02D0E8B
:103138004DEC1DF0540E4DEC1DF0610E4DEC1DF0E4
:10314800670E4DEC1DF0310E4DEC1DF0300E4DECC0
:103158001DF0300E4DEC1DF0200E4DEC1DF0560EFE
:103168004DEC1DF0300E4DEC1DF0390E4DEC1DF000
:10317800320E4DEC1DF0390E4DEC1DF054EC1DF0E7
:103188005BEC1DF012003D2A9F0E3B18D8A41200DC
:10319800BDEC1CF0000E276E000E266E880E265C15
:1031A800130E2758D8B005D001D003D0264A272AB5
:1031B800F5D73E50D8B404D0810E0001D66F00D0A8
:1031C800000E40240001EF6FFE0E41200001F06F59
:1031D800D6C0F1F00001F26B000E0001F36FDEECD7
:1031E80013F055EC1BF0000E3D6E0E0E0001C76F7C
:1031F80072EC19F0120012000001EE6F000E0001CF
:10320800ED6F0001EEAF03D00001ED8100D00001A9
:10321800EEAD03D00001ED8300D00001EEAB03D08A
:103228000001ED8500D00001EEA903D00001ED8773
:1032380000D00001EEA703D00001ED8900D0000105
:10324800EEA503D00001ED8B00D00001EEA303D062
:103258000001ED8D00D00001EEA103D00001ED8F3B
:1032680000D00001ED51120012000001EE6F000EB7
:103278000001ED6F0001EEAF03D00001ED8100D039
:103288000001EEAD03D00001ED8300D00001EEABEC
:1032980003D00001ED8500D00001EEA903D00001A4
:1032A800ED8700D00001EEA703D00001ED8900D022
:1032B8000001EEA503D00001ED8B00D00001EEA3C4
:1032C80003D00001ED8D00D00001EEA103D0000174
:1032D800ED8F00D00001ED5112001200000E276E94
:1032E800000E266E880E265C130E2758D8B005D01F
:1032F80001D003D0264A272AF5D73D2A000E4024BC
:103308000001F56FFE0E41200001F66F000E00016E
:10331800F06F000EEF6FF5C0F1F0F6C0F2F0D0C01C
:10332800F3F0D1C0F4F052EC18F0000E3D6E640ECC
:103338000001C76F1200000E0001ED6F00D024508D
:103348002510D8B4FCD7C80E0001A625D96E030EE7
:103358000001A721DA6EDF500001ED6F0001A64BD6
:10336800A72B6C0E0001A65D020E0001A759D8A07C
:1033780006D0000E0001A76F000EA66F00D09D9A20
:103388002406D8A025069D8A0001ED5112001200DE
:103398009F0E3B18D8B408D07F0E3B18D8B404D081
:1033A800F90E3B18D8A4120055EC1BF0000E436E22
:1033B800000E426E100E425C270E4358D8B005D05E
:1033C80001D003D0424A432AF5D7000E0001A96F65
:1033D800040EA86F270E0001AB6F130EAA6F010E23
:1033E8000001BC6F12001200000E8D6E400E8C6E34
:1033F800000E896E000E8A6E470E8B6E070E966E53
:1034080092689368B80E946E8A0E956E380E0F0106
:103418003A6F380E0F01396F080E0F013B6F070E18
:103428000F013C6F2F0E0F01386F6168F19EF28615
:103438001200BF0E3B18D8A41200000E3D6E000EFD
:10344800436E000E426E600E425CEA0E4358D8B0DE
:1034580005D001D003D0424A432AF5D7000E000117
:10346800A96F040EA86F270E0001AB6F130EAA6F89
:10347800020E0001BC6F120012007F0E3B18D8A488
:10348800120055EC1BF0000E436E000E426E100E3B
:10349800425C270E4358D8B005D001D003D0424A29
:1034A800432AF5D7000E0001A96F040EA86F270E56
:1034B8000001AB6F130EAA6F010E0001BC6F120062
:1034C80012000001ED6F00D00001FE51D8B4FCD706
:1034D8009DB803D0EDC0ADFF15D09D983250010DB9
:1034E800000EF324D96E030EF420DA6EEDC0DFFF70
:1034F800322AC70E326403D0000E326E00D00001AB
:10350800FE0700D09D8812009D9A9D980A0EB86EFD
:10351800900EAB6E240EAC6E330EAF6E000EB06E16
:10352800000E326E000E336EC80E0001FE6F000EE4
:103538000001A56F000EA46F000E0001A76F000E1A
:10354800A66F000E256E000E246E9D8A1200ABA297
:1035580003D0AB98AB8800D0C80E0001A425D96E63
:10356800030E0001A521DA6EAECFDFFF0001A44BE8
:10357800A52B6C0E0001A45D020E0001A559D8A070
:1035880006D0000E0001A56F000EA46F00D0244ADB
:10359800252A12003D2A3B28D8A419D0CA0E3DEC92
:1035A8001DF0000E3D6E010E0001C26F000E0001FD
:1035B800A96F000EA86F000E0001AB6F000EAA6F76
:1035C800010E0001C76F000E0001C66F1200000E49
:1035D8000001C76F120012000001EE6F2E50010D9E
:1035E800400EF324D96E010EF420DA6E0001EE3994
:1035F8000F0BFBEC15F0DF6E2E2A2E50010D400E3E
:10360800F324D96E010EF420DA6E0001EE510F0B8F
:10361800FBEC15F0DF6E2E2A12001200F090F19AE2
:10362800460E0001ED6F3B0E0001EE6F83EC1DF0BE
:10363800F086F092F198440E0001ED6F3B0E000108
:10364800EE6F7EEC1DF0F088F292F19C420E0001C4
:10365800ED6F3B0E0001EE6F88EC1DF0F288120052
:103668003D2A9F0E3B18D8A41200BDEC1CF0000E9A
:1036780040240001EF6FFF0E41200001F06FD6C01B
:10368800F1F00001F26B000E0001F36FDEEC13F0B5
:10369800000E3D6E0C0E0001C76FD3EC17F0120040
:1036A800120008D0000E276E000E266E03D0264AA0
:1036B800272A00D09DA810D0F5D70ED08B7400D043
:1036C8009FEC19F00001EE6F000E276E000E266EBB
:1036D80003D0264A272A00D024502510D8A4EED794
:1036E80012003D2AB50E3B18D8A41200BDEC1CF000
:1036F80040C0EFF041C0F0F0D6C0F1F00001F26B2D
:10370800010E0001F36FDEEC13F0000E3D6E0A0EA1
:103718000001C76FC9EC14F012001200B50E3B1877
:10372800D8A41200000E3D6E010E0001C26F000EFB
:103738000001A96F000EA86F000E0001AB6F000E0C
:10374800AA6F6E0E0001C76F000E0001C66F12004F
:103758001200EDC0F3F0EEC0F4F00AD0F3C0D9FFC8
:10376800F4C0DAFFEFC0DFFF0001F34BF42B00D009
:103778000001F107D8A0F2070001F129EFE10001EB
:10378800F229D8A4EBD71200A39AA398080E706E5A
:10379800900E716E240E726E330E756E000E766E7C
:1037A800000E376E000E386E080E0001FF6F000E17
:1037B800356E000E366E000E346EA38A1200C80EE7
:1037C8000001FE6114D03350010D000EF324D96EB0
:1037D800030EF420DA6EDF50AD6E332AC70E336461
:1037E80003D0000E336E00D00001FE2B12009D980E
:1037F80012001200080E0001FF6114D03850010DAC
:10380800940EF324D96E000EF420DA6EDF50736E36
:10381800382A070E386403D0000E386E00D0000135
:10382800FF2B1200A398120012003050D8A403D026
:10383800010E306E00D00001FA510001FB11D8B41E
:10384800120001D8120005000001FA6EFA51FD6E4F
:10385800FB51FE6EF850FF6EFA5012001200315004
:10386800D8A403D0010E316E00D00001F851000138
:10387800F911D8B4120001D8120005000001FA6E3F
:10388800F851FD6EF951FE6EF850FF6EFA501200B5
:1038980012000F0E0001BB6F62EC1DF0000E2B6EC4
:1038A800000E0001EE6F000ECEEC1CF09EC020F062
:1038B8009FC021F000D062EC05F00009D8A4FBD726
:1038C800120071A203D07198718800D03550010D93
:1038D8008C0EF324D96E000EF420DA6E74CFDFFF5D
:1038E800352A070E356403D0000E356E00D0342A11
:1038F8001200F0989DEC1DF00001FC510001FD1133
:10390800D8B4120001D8120005000001FA6EFC516B
:10391800FD6EFD51FE6EF850FF6EFA501200120057
:10392800F90E3B18D8A406D0660E0001C76F000E2A
:103938003D6E1200FD0E3B18D8A41200C80E0001FF
:10394800C76F000E3D6E120012000EEC1DF000D085
:103958008B9000D08B9200D08C8400D08C9A00D0B1
:103968008B8400D0F28EF28CACEC0EF0FFD763EFB4
:1039780000F0000E276E000E266E27500AE1640E36
:10398800265CD8B0120001D01200264A272AF5D7A3
:10399800120012000001EF6FFC0E45EC1DF0240E22
:1039A80045EC1DF00001EF5145EC1DF00001EE5112
:1039B80045EC1DF01200C106BCDA1FAC61546094DE
:1039C800000000000000009E0A80800A00AF0A0084
:1039D800810A80000AF400003C50D8B4120001D0DB
:1039E8001200000E00019F6F000E9E6F2BEC1DF061
:1039F8004DEC1CF012003C50D8B4120001D012005B
:103A0800000E00019F6F400E9E6F2BEC1DF04DECD9
:103A18001CF0120034EC1DF0F8EC19F077EC1DF0F6
:103A280070EC1DF012EC1BF088EC1AF0C8EC1BF0DF
:103A380012003D2A3D50D8B41200010E3A6E000E15
:103A48003D6E00D0640E0001C76F120012008B900B
:103A580000D08B9200D08C8400D08C9A1200120077
:103A6800D08EF08CA588A58AF1809F989F9AF09EA9
:103A780012000001EE6F0001EE5165EC1AF0120021
:103A880012000001ED6F6C9EEDC06FFF6F501200C9
:103A980012000001EE6F0001EE5145EC1DF012001E
:103AA800FC0E45EC1DF0400E45EC1DF01200FC0E1E
:103AB80045EC1DF07C0E45EC1DF01200FC0E45ECAB
:103AC8001DF0230E45EC1DF01200FC0E45EC1DF018
:103AD800530E45EC1DF01200000E6D6E200E6C6E3C
:103AE800000E6E6E1200400ED36E040ED26E000EE3
:103AF8009B6E1200EDC0FCF0EEC0FDF01200EDC0B0
:103B0800FAF0EEC0FBF01200EDC0F8F0EEC0F9F0EC
:103B18001200F0927DEC1CF01200F09019EC1CF0F1
:103B28001200F29233EC1CF012000101C000F09870
:103B38001200F0981200F290120012001200120007
:023B4800120069
:020000040020DA
:08000000FFFFFFFFFFFFFFFF00
:020000040030CA
:0E000000FF281F3CFFBF85FF0FC00FE00F4021
:00000001FF
