C51 COMPILER V9.59.0.0   MG82F6D17_PW_TEST                                                 09/29/2020 17:20:12 PAGE 1   


C51 COMPILER V9.59.0.0, COMPILATION OF MODULE MG82F6D17_PW_TEST
OBJECT MODULE PLACED IN .\Objects\MG82F6D17_PW_Test.obj
COMPILER INVOKED BY: C:\Keil_v5\C51\BIN\C51.EXE Test\MG82F6D17_PW_Test.c OMF2 OPTIMIZE(0,SPEED) BROWSE INCDIR(.\Source;.
                    -\Include;..\Common\ADC\;..\Common\Beeper\;..\Common\DMA\;..\Common\General\;..\Common\GPIO\;..\Common\GPL\;..\Common\I2C
                    -0\;..\Common\IAP\;..\Common\Interrupt\;..\Common\KBI\;..\Common\PCA\;..\Common\Power\;..\Common\Reset\;..\Common\RTC\;..
                    -\Common\SPI\;..\Common\SerialPort0\;..\Common\SerialPort1\;..\Common\SystemClock\;..\Common\TimerCounter\;..\Common\WDT\
                    -) DEBUG PRINT(.\Listings\MG82F6D17_PW_Test.lst) OBJECT(.\Objects\MG82F6D17_PW_Test.obj)

line level    source

   1          #include "MG82F6D17_CONFIG.h"
   2          
   3          /**
   4           *******************************************************************************
   5           * Power Management Test Group
   6           *******************************************************************************
   7           */
   8          void MG82F6D17_PW_DRV_h(void)
   9          {
  10   1          __DRV_PW_PowerDown_Enable();
  11   1      
  12   1          __DRV_PW_IdleMode_Enable();
  13   1      
  14   1          __DRV_BODx_SetBOD0RST_Cmd(MW_DISABLE);
  15   1          __DRV_BODx_SetBOD0RST_Cmd(MW_ENABLE);
  16   1      
  17   1          __DRV_BODx_SetBOD1RST_Cmd(MW_DISABLE);
  18   1          __DRV_BODx_SetBOD1RST_Cmd(MW_ENABLE);
  19   1      
  20   1          __DRV_BODx_BOD1_MonitoredLevelSelect(BOD1_VoltageLevel_2V0);
  21   1          __DRV_BODx_BOD1_MonitoredLevelSelect(BOD1_VoltageLevel_2V4);
  22   1          __DRV_BODx_BOD1_MonitoredLevelSelect(BOD1_VoltageLevel_3V7);
  23   1          __DRV_BODx_BOD1_MonitoredLevelSelect(BOD1_VoltageLevel_4V2);
  24   1      
  25   1          __DRV_BODx_BOD1_AwakeBOD1inPD(MW_DISABLE);
  26   1          __DRV_BODx_BOD1_AwakeBOD1inPD(MW_ENABLE);
  27   1      
  28   1          __DRV_BODx_BOD1_MonitorsVDD(MW_DISABLE);
  29   1          __DRV_BODx_BOD1_MonitorsVDD(MW_ENABLE);
  30   1      
  31   1          __DRV_BODx_BOD0_IT_Cmd(MW_DISABLE);
  32   1          __DRV_BODx_BOD0_IT_Cmd(MW_ENABLE);
  33   1      
  34   1          __DRV_BODx_BOD1_IT_Cmd(MW_DISABLE);
  35   1          __DRV_BODx_BOD1_IT_Cmd(MW_ENABLE);
  36   1      
  37   1          __DRV_BODx_BOD1_ClearFlag();
  38   1      
  39   1          __DRV_BODx_BOD0_ClearFlag();
  40   1      }
  41          


MODULE INFORMATION:   STATIC OVERLAYABLE
   CODE SIZE        =    238    ----
   CONSTANT SIZE    =   ----    ----
   XDATA SIZE       =   ----    ----
   PDATA SIZE       =   ----    ----
   DATA SIZE        =      1    ----
   IDATA SIZE       =   ----    ----
   BIT SIZE         =   ----    ----
C51 COMPILER V9.59.0.0   MG82F6D17_PW_TEST                                                 09/29/2020 17:20:12 PAGE 2   

   EDATA SIZE       =   ----    ----
   HDATA SIZE       =   ----    ----
   XDATA CONST SIZE =   ----    ----
   FAR CONST SIZE   =   ----    ----
END OF MODULE INFORMATION.


C51 COMPILATION COMPLETE.  0 WARNING(S),  0 ERROR(S)
